{
  "_format": "hh-sol-artifact-1",
  "contractName": "Marketplace",
  "sourceName": "contracts/Marketplace.sol",
  "abi": [
    {
      "inputs": [
        {
          "internalType": "uint256",
          "name": "_itemId",
          "type": "uint256"
        }
      ],
      "name": "buyNFT",
      "outputs": [],
      "stateMutability": "payable",
      "type": "function"
    },
    {
      "inputs": [],
      "name": "itemCount",
      "outputs": [
        {
          "internalType": "uint256",
          "name": "",
          "type": "uint256"
        }
      ],
      "stateMutability": "view",
      "type": "function"
    },
    {
      "inputs": [
        {
          "internalType": "address",
          "name": "_nft",
          "type": "address"
        },
        {
          "internalType": "uint256",
          "name": "_tokenId",
          "type": "uint256"
        },
        {
          "internalType": "uint256",
          "name": "_price",
          "type": "uint256"
        }
      ],
      "name": "listNFT",
      "outputs": [],
      "stateMutability": "nonpayable",
      "type": "function"
    },
    {
      "inputs": [
        {
          "internalType": "uint256",
          "name": "",
          "type": "uint256"
        }
      ],
      "name": "listings",
      "outputs": [
        {
          "internalType": "address",
          "name": "seller",
          "type": "address"
        },
        {
          "internalType": "address",
          "name": "nft",
          "type": "address"
        },
        {
          "internalType": "uint256",
          "name": "tokenId",
          "type": "uint256"
        },
        {
          "internalType": "uint256",
          "name": "price",
          "type": "uint256"
        }
      ],
      "stateMutability": "view",
      "type": "function"
    }
  ],
  "bytecode": "0x6080604052348015600f57600080fd5b5061085a8061001f6000396000f3fe60806040526004361061003f5760003560e01c806351ed8288146100445780636bfb0d0114610060578063ad05f1b41461008b578063de74e57b146100b4575b600080fd5b61005e6004803603810190610059919061059d565b6100f4565b005b34801561006c57600080fd5b5061007561035b565b60405161008291906105d9565b60405180910390f35b34801561009757600080fd5b506100b260048036038101906100ad9190610652565b610361565b005b3480156100c057600080fd5b506100db60048036038101906100d6919061059d565b6104f2565b6040516100eb94939291906106b4565b60405180910390f35b6000600160008381526020019081526020016000206040518060800160405290816000820160009054906101000a900473ffffffffffffffffffffffffffffffffffffffff1673ffffffffffffffffffffffffffffffffffffffff1673ffffffffffffffffffffffffffffffffffffffff1681526020016001820160009054906101000a900473ffffffffffffffffffffffffffffffffffffffff1673ffffffffffffffffffffffffffffffffffffffff1673ffffffffffffffffffffffffffffffffffffffff168152602001600282015481526020016003820154815250509050806060015134101561021d576040517f08c379a000000000000000000000000000000000000000000000000000000000815260040161021490610756565b60405180910390fd5b806020015173ffffffffffffffffffffffffffffffffffffffff166323b872dd303384604001516040518463ffffffff1660e01b815260040161026293929190610776565b600060405180830381600087803b15801561027c57600080fd5b505af1158015610290573d6000803e3d6000fd5b50505050806000015173ffffffffffffffffffffffffffffffffffffffff166108fc82606001519081150290604051600060405180830381858888f193505050501580156102e2573d6000803e3d6000fd5b5060016000838152602001908152602001600020600080820160006101000a81549073ffffffffffffffffffffffffffffffffffffffff02191690556001820160006101000a81549073ffffffffffffffffffffffffffffffffffffffff02191690556002820160009055600382016000905550505050565b60005481565b8273ffffffffffffffffffffffffffffffffffffffff166323b872dd3330856040518463ffffffff1660e01b815260040161039e93929190610776565b600060405180830381600087803b1580156103b857600080fd5b505af11580156103cc573d6000803e3d6000fd5b505050506000808154809291906103e2906107dc565b919050555060405180608001604052803373ffffffffffffffffffffffffffffffffffffffff1681526020018473ffffffffffffffffffffffffffffffffffffffff16815260200183815260200182815250600160008054815260200190815260200160002060008201518160000160006101000a81548173ffffffffffffffffffffffffffffffffffffffff021916908373ffffffffffffffffffffffffffffffffffffffff16021790555060208201518160010160006101000a81548173ffffffffffffffffffffffffffffffffffffffff021916908373ffffffffffffffffffffffffffffffffffffffff1602179055506040820151816002015560608201518160030155905050505050565b60016020528060005260406000206000915090508060000160009054906101000a900473ffffffffffffffffffffffffffffffffffffffff16908060010160009054906101000a900473ffffffffffffffffffffffffffffffffffffffff16908060020154908060030154905084565b600080fd5b6000819050919050565b61057a81610567565b811461058557600080fd5b50565b60008135905061059781610571565b92915050565b6000602082840312156105b3576105b2610562565b5b60006105c184828501610588565b91505092915050565b6105d381610567565b82525050565b60006020820190506105ee60008301846105ca565b92915050565b600073ffffffffffffffffffffffffffffffffffffffff82169050919050565b600061061f826105f4565b9050919050565b61062f81610614565b811461063a57600080fd5b50565b60008135905061064c81610626565b92915050565b60008060006060848603121561066b5761066a610562565b5b60006106798682870161063d565b935050602061068a86828701610588565b925050604061069b86828701610588565b9150509250925092565b6106ae81610614565b82525050565b60006080820190506106c960008301876106a5565b6106d660208301866106a5565b6106e360408301856105ca565b6106f060608301846105ca565b95945050505050565b600082825260208201905092915050565b7f496e73756666696369656e742045544800000000000000000000000000000000600082015250565b60006107406010836106f9565b915061074b8261070a565b602082019050919050565b6000602082019050818103600083015261076f81610733565b9050919050565b600060608201905061078b60008301866106a5565b61079860208301856106a5565b6107a560408301846105ca565b949350505050565b7f4e487b7100000000000000000000000000000000000000000000000000000000600052601160045260246000fd5b60006107e782610567565b91507fffffffffffffffffffffffffffffffffffffffffffffffffffffffffffffffff8203610819576108186107ad565b5b60018201905091905056fea264697066735822122000a588cba0567e72e7f8df85deee8a4f5b2eb47c8706a690bd198115a925a85c64736f6c634300081c0033",
  "linkReferences": {},
  "deployedLinkReferences": {}
}