{
  "_format": "hh-sol-artifact-1",
  "contractName": "NFT",
  "sourceName": "contracts/NFT.sol",
  "abi": [
    {
      "inputs": [],
      "stateMutability": "nonpayable",
      "type": "constructor"
    },
    {
      "inputs": [
        {
          "internalType": "address",
          "name": "sender",
          "type": "address"
        },
        {
          "internalType": "uint256",
          "name": "tokenId",
          "type": "uint256"
        },
        {
          "internalType": "address",
          "name": "owner",
          "type": "address"
        }
      ],
      "name": "ERC721IncorrectOwner",
      "type": "error"
    },
    {
      "inputs": [
        {
          "internalType": "address",
          "name": "operator",
          "type": "address"
        },
        {
          "internalType": "uint256",
          "name": "tokenId",
          "type": "uint256"
        }
      ],
      "name": "ERC721InsufficientApproval",
      "type": "error"
    },
    {
      "inputs": [
        {
          "internalType": "address",
          "name": "approver",
          "type": "address"
        }
      ],
      "name": "ERC721InvalidApprover",
      "type": "error"
    },
    {
      "inputs": [
        {
          "internalType": "address",
          "name": "operator",
          "type": "address"
        }
      ],
      "name": "ERC721InvalidOperator",
      "type": "error"
    },
    {
      "inputs": [
        {
          "internalType": "address",
          "name": "owner",
          "type": "address"
        }
      ],
      "name": "ERC721InvalidOwner",
      "type": "error"
    },
    {
      "inputs": [
        {
          "internalType": "address",
          "name": "receiver",
          "type": "address"
        }
      ],
      "name": "ERC721InvalidReceiver",
      "type": "error"
    },
    {
      "inputs": [
        {
          "internalType": "address",
          "name": "sender",
          "type": "address"
        }
      ],
      "name": "ERC721InvalidSender",
      "type": "error"
    },
    {
      "inputs": [
        {
          "internalType": "uint256",
          "name": "tokenId",
          "type": "uint256"
        }
      ],
      "name": "ERC721NonexistentToken",
      "type": "error"
    },
    {
      "inputs": [
        {
          "internalType": "address",
          "name": "owner",
          "type": "address"
        }
      ],
      "name": "OwnableInvalidOwner",
      "type": "error"
    },
    {
      "inputs": [
        {
          "internalType": "address",
          "name": "account",
          "type": "address"
        }
      ],
      "name": "OwnableUnauthorizedAccount",
      "type": "error"
    },
    {
      "anonymous": false,
      "inputs": [
        {
          "indexed": true,
          "internalType": "address",
          "name": "owner",
          "type": "address"
        },
        {
          "indexed": true,
          "internalType": "address",
          "name": "approved",
          "type": "address"
        },
        {
          "indexed": true,
          "internalType": "uint256",
          "name": "tokenId",
          "type": "uint256"
        }
      ],
      "name": "Approval",
      "type": "event"
    },
    {
      "anonymous": false,
      "inputs": [
        {
          "indexed": true,
          "internalType": "address",
          "name": "owner",
          "type": "address"
        },
        {
          "indexed": true,
          "internalType": "address",
          "name": "operator",
          "type": "address"
        },
        {
          "indexed": false,
          "internalType": "bool",
          "name": "approved",
          "type": "bool"
        }
      ],
      "name": "ApprovalForAll",
      "type": "event"
    },
    {
      "anonymous": false,
      "inputs": [
        {
          "indexed": false,
          "internalType": "uint256",
          "name": "_fromTokenId",
          "type": "uint256"
        },
        {
          "indexed": false,
          "internalType": "uint256",
          "name": "_toTokenId",
          "type": "uint256"
        }
      ],
      "name": "BatchMetadataUpdate",
      "type": "event"
    },
    {
      "anonymous": false,
      "inputs": [
        {
          "indexed": false,
          "internalType": "uint256",
          "name": "_tokenId",
          "type": "uint256"
        }
      ],
      "name": "MetadataUpdate",
      "type": "event"
    },
    {
      "anonymous": false,
      "inputs": [
        {
          "indexed": true,
          "internalType": "address",
          "name": "previousOwner",
          "type": "address"
        },
        {
          "indexed": true,
          "internalType": "address",
          "name": "newOwner",
          "type": "address"
        }
      ],
      "name": "OwnershipTransferred",
      "type": "event"
    },
    {
      "anonymous": false,
      "inputs": [
        {
          "indexed": true,
          "internalType": "address",
          "name": "from",
          "type": "address"
        },
        {
          "indexed": true,
          "internalType": "address",
          "name": "to",
          "type": "address"
        },
        {
          "indexed": true,
          "internalType": "uint256",
          "name": "tokenId",
          "type": "uint256"
        }
      ],
      "name": "Transfer",
      "type": "event"
    },
    {
      "inputs": [
        {
          "internalType": "address",
          "name": "to",
          "type": "address"
        },
        {
          "internalType": "uint256",
          "name": "tokenId",
          "type": "uint256"
        }
      ],
      "name": "approve",
      "outputs": [],
      "stateMutability": "nonpayable",
      "type": "function"
    },
    {
      "inputs": [
        {
          "internalType": "address",
          "name": "owner",
          "type": "address"
        }
      ],
      "name": "balanceOf",
      "outputs": [
        {
          "internalType": "uint256",
          "name": "",
          "type": "uint256"
        }
      ],
      "stateMutability": "view",
      "type": "function"
    },
    {
      "inputs": [
        {
          "internalType": "uint256",
          "name": "tokenId",
          "type": "uint256"
        }
      ],
      "name": "getApproved",
      "outputs": [
        {
          "internalType": "address",
          "name": "",
          "type": "address"
        }
      ],
      "stateMutability": "view",
      "type": "function"
    },
    {
      "inputs": [
        {
          "internalType": "address",
          "name": "owner",
          "type": "address"
        },
        {
          "internalType": "address",
          "name": "operator",
          "type": "address"
        }
      ],
      "name": "isApprovedForAll",
      "outputs": [
        {
          "internalType": "bool",
          "name": "",
          "type": "bool"
        }
      ],
      "stateMutability": "view",
      "type": "function"
    },
    {
      "inputs": [
        {
          "internalType": "string",
          "name": "_tokenURI",
          "type": "string"
        }
      ],
      "name": "mint",
      "outputs": [
        {
          "internalType": "uint256",
          "name": "",
          "type": "uint256"
        }
      ],
      "stateMutability": "nonpayable",
      "type": "function"
    },
    {
      "inputs": [],
      "name": "name",
      "outputs": [
        {
          "internalType": "string",
          "name": "",
          "type": "string"
        }
      ],
      "stateMutability": "view",
      "type": "function"
    },
    {
      "inputs": [],
      "name": "owner",
      "outputs": [
        {
          "internalType": "address",
          "name": "",
          "type": "address"
        }
      ],
      "stateMutability": "view",
      "type": "function"
    },
    {
      "inputs": [
        {
          "internalType": "uint256",
          "name": "tokenId",
          "type": "uint256"
        }
      ],
      "name": "ownerOf",
      "outputs": [
        {
          "internalType": "address",
          "name": "",
          "type": "address"
        }
      ],
      "stateMutability": "view",
      "type": "function"
    },
    {
      "inputs": [],
      "name": "renounceOwnership",
      "outputs": [],
      "stateMutability": "nonpayable",
      "type": "function"
    },
    {
      "inputs": [
        {
          "internalType": "address",
          "name": "from",
          "type": "address"
        },
        {
          "internalType": "address",
          "name": "to",
          "type": "address"
        },
        {
          "internalType": "uint256",
          "name": "tokenId",
          "type": "uint256"
        }
      ],
      "name": "safeTransferFrom",
      "outputs": [],
      "stateMutability": "nonpayable",
      "type": "function"
    },
    {
      "inputs": [
        {
          "internalType": "address",
          "name": "from",
          "type": "address"
        },
        {
          "internalType": "address",
          "name": "to",
          "type": "address"
        },
        {
          "internalType": "uint256",
          "name": "tokenId",
          "type": "uint256"
        },
        {
          "internalType": "bytes",
          "name": "data",
          "type": "bytes"
        }
      ],
      "name": "safeTransferFrom",
      "outputs": [],
      "stateMutability": "nonpayable",
      "type": "function"
    },
    {
      "inputs": [
        {
          "internalType": "address",
          "name": "operator",
          "type": "address"
        },
        {
          "internalType": "bool",
          "name": "approved",
          "type": "bool"
        }
      ],
      "name": "setApprovalForAll",
      "outputs": [],
      "stateMutability": "nonpayable",
      "type": "function"
    },
    {
      "inputs": [
        {
          "internalType": "bytes4",
          "name": "interfaceId",
          "type": "bytes4"
        }
      ],
      "name": "supportsInterface",
      "outputs": [
        {
          "internalType": "bool",
          "name": "",
          "type": "bool"
        }
      ],
      "stateMutability": "view",
      "type": "function"
    },
    {
      "inputs": [],
      "name": "symbol",
      "outputs": [
        {
          "internalType": "string",
          "name": "",
          "type": "string"
        }
      ],
      "stateMutability": "view",
      "type": "function"
    },
    {
      "inputs": [],
      "name": "tokenCount",
      "outputs": [
        {
          "internalType": "uint256",
          "name": "",
          "type": "uint256"
        }
      ],
      "stateMutability": "view",
      "type": "function"
    },
    {
      "inputs": [
        {
          "internalType": "uint256",
          "name": "tokenId",
          "type": "uint256"
        }
      ],
      "name": "tokenURI",
      "outputs": [
        {
          "internalType": "string",
          "name": "",
          "type": "string"
        }
      ],
      "stateMutability": "view",
      "type": "function"
    },
    {
      "inputs": [
        {
          "internalType": "address",
          "name": "from",
          "type": "address"
        },
        {
          "internalType": "address",
          "name": "to",
          "type": "address"
        },
        {
          "internalType": "uint256",
          "name": "tokenId",
          "type": "uint256"
        }
      ],
      "name": "transferFrom",
      "outputs": [],
      "stateMutability": "nonpayable",
      "type": "function"
    },
    {
      "inputs": [
        {
          "internalType": "address",
          "name": "newOwner",
          "type": "address"
        }
      ],
      "name": "transferOwnership",
      "outputs": [],
      "stateMutability": "nonpayable",
      "type": "function"
    }
  ],
  "bytecode": "0x608060405234801561001057600080fd5b50336040518060400160405280600981526020017f4f61736973204e465400000000000000000000000000000000000000000000008152506040518060400160405280600481526020017f4f4e465400000000000000000000000000000000000000000000000000000000815250816000908161008d919061043d565b50806001908161009d919061043d565b505050600073ffffffffffffffffffffffffffffffffffffffff168173ffffffffffffffffffffffffffffffffffffffff16036101125760006040517f1e4fbdf70000000000000000000000000000000000000000000000000000000081526004016101099190610550565b60405180910390fd5b6101218161012760201b60201c565b5061056b565b6000600760009054906101000a900473ffffffffffffffffffffffffffffffffffffffff16905081600760006101000a81548173ffffffffffffffffffffffffffffffffffffffff021916908373ffffffffffffffffffffffffffffffffffffffff1602179055508173ffffffffffffffffffffffffffffffffffffffff168173ffffffffffffffffffffffffffffffffffffffff167f8be0079c531659141344cd1fd0a4f28419497f9722a3daafe3b4186f6b6457e060405160405180910390a35050565b600081519050919050565b7f4e487b7100000000000000000000000000000000000000000000000000000000600052604160045260246000fd5b7f4e487b7100000000000000000000000000000000000000000000000000000000600052602260045260246000fd5b6000600282049050600182168061026e57607f821691505b60208210810361028157610280610227565b5b50919050565b60008190508160005260206000209050919050565b60006020601f8301049050919050565b600082821b905092915050565b6000600883026102e97fffffffffffffffffffffffffffffffffffffffffffffffffffffffffffffffff826102ac565b6102f386836102ac565b95508019841693508086168417925050509392505050565b6000819050919050565b6000819050919050565b600061033a6103356103308461030b565b610315565b61030b565b9050919050565b6000819050919050565b6103548361031f565b61036861036082610341565b8484546102b9565b825550505050565b600090565b61037d610370565b61038881848461034b565b505050565b5b818110156103ac576103a1600082610375565b60018101905061038e565b5050565b601f8211156103f1576103c281610287565b6103cb8461029c565b810160208510156103da578190505b6103ee6103e68561029c565b83018261038d565b50505b505050565b600082821c905092915050565b6000610414600019846008026103f6565b1980831691505092915050565b600061042d8383610403565b9150826002028217905092915050565b610446826101ed565b67ffffffffffffffff81111561045f5761045e6101f8565b5b6104698254610256565b6104748282856103b0565b600060209050601f8311600181146104a75760008415610495578287015190505b61049f8582610421565b865550610507565b601f1984166104b586610287565b60005b828110156104dd578489015182556001820191506020850194506020810190506104b8565b868310156104fa57848901516104f6601f891682610403565b8355505b6001600288020188555050505b505050505050565b600073ffffffffffffffffffffffffffffffffffffffff82169050919050565b600061053a8261050f565b9050919050565b61054a8161052f565b82525050565b60006020820190506105656000830184610541565b92915050565b6126948061057a6000396000f3fe608060405234801561001057600080fd5b50600436106101165760003560e01c80638da5cb5b116100a2578063b88d4fde11610071578063b88d4fde146102cd578063c87b56dd146102e9578063d85d3d2714610319578063e985e9c514610349578063f2fde38b1461037957610116565b80638da5cb5b1461025757806395d89b41146102755780639f181b5e14610293578063a22cb465146102b157610116565b806323b872dd116100e957806323b872dd146101b557806342842e0e146101d15780636352211e146101ed57806370a082311461021d578063715018a61461024d57610116565b806301ffc9a71461011b57806306fdde031461014b578063081812fc14610169578063095ea7b314610199575b600080fd5b61013560048036038101906101309190611aff565b610395565b6040516101429190611b47565b60405180910390f35b6101536103f6565b6040516101609190611bf2565b60405180910390f35b610183600480360381019061017e9190611c4a565b610488565b6040516101909190611cb8565b60405180910390f35b6101b360048036038101906101ae9190611cff565b6104a4565b005b6101cf60048036038101906101ca9190611d3f565b6104ba565b005b6101eb60048036038101906101e69190611d3f565b6105bc565b005b61020760048036038101906102029190611c4a565b6105dc565b6040516102149190611cb8565b60405180910390f35b61023760048036038101906102329190611d92565b6105ee565b6040516102449190611dce565b60405180910390f35b6102556106a8565b005b61025f6106bc565b60405161026c9190611cb8565b60405180910390f35b61027d6106e6565b60405161028a9190611bf2565b60405180910390f35b61029b610778565b6040516102a89190611dce565b60405180910390f35b6102cb60048036038101906102c69190611e15565b61077e565b005b6102e760048036038101906102e29190611f8a565b610794565b005b61030360048036038101906102fe9190611c4a565b6107b9565b6040516103109190611bf2565b60405180910390f35b610333600480360381019061032e91906120ae565b6108cc565b6040516103409190611dce565b60405180910390f35b610363600480360381019061035e91906120f7565b610908565b6040516103709190611b47565b60405180910390f35b610393600480360381019061038e9190611d92565b61099c565b005b6000634906490660e01b7bffffffffffffffffffffffffffffffffffffffffffffffffffffffff1916827bffffffffffffffffffffffffffffffffffffffffffffffffffffffff191614806103ef57506103ee82610a22565b5b9050919050565b60606000805461040590612166565b80601f016020809104026020016040519081016040528092919081815260200182805461043190612166565b801561047e5780601f106104535761010080835404028352916020019161047e565b820191906000526020600020905b81548152906001019060200180831161046157829003601f168201915b5050505050905090565b600061049382610b04565b5061049d82610b8c565b9050919050565b6104b682826104b1610bc9565b610bd1565b5050565b600073ffffffffffffffffffffffffffffffffffffffff168273ffffffffffffffffffffffffffffffffffffffff160361052c5760006040517f64a0ae920000000000000000000000000000000000000000000000000000000081526004016105239190611cb8565b60405180910390fd5b6000610540838361053b610bc9565b610be3565b90508373ffffffffffffffffffffffffffffffffffffffff168173ffffffffffffffffffffffffffffffffffffffff16146105b6578382826040517f64283d7b0000000000000000000000000000000000000000000000000000000081526004016105ad93929190612197565b60405180910390fd5b50505050565b6105d783838360405180602001604052806000815250610794565b505050565b60006105e782610b04565b9050919050565b60008073ffffffffffffffffffffffffffffffffffffffff168273ffffffffffffffffffffffffffffffffffffffff16036106615760006040517f89c62b640000000000000000000000000000000000000000000000000000000081526004016106589190611cb8565b60405180910390fd5b600360008373ffffffffffffffffffffffffffffffffffffffff1673ffffffffffffffffffffffffffffffffffffffff168152602001908152602001600020549050919050565b6106b0610dfd565b6106ba6000610e84565b565b6000600760009054906101000a900473ffffffffffffffffffffffffffffffffffffffff16905090565b6060600180546106f590612166565b80601f016020809104026020016040519081016040528092919081815260200182805461072190612166565b801561076e5780601f106107435761010080835404028352916020019161076e565b820191906000526020600020905b81548152906001019060200180831161075157829003601f168201915b5050505050905090565b60085481565b610790610789610bc9565b8383610f4a565b5050565b61079f8484846104ba565b6107b36107aa610bc9565b858585856110b9565b50505050565b60606107c482610b04565b5060006006600084815260200190815260200160002080546107e590612166565b80601f016020809104026020016040519081016040528092919081815260200182805461081190612166565b801561085e5780601f106108335761010080835404028352916020019161085e565b820191906000526020600020905b81548152906001019060200180831161084157829003601f168201915b50505050509050600061086f61126a565b905060008151036108845781925050506108c7565b6000825111156108b95780826040516020016108a192919061220a565b604051602081830303815290604052925050506108c7565b6108c284611281565b925050505b919050565b6000600860008154809291906108e19061225d565b91905055506108f2336008546112ea565b6108fe60085483611308565b6008549050919050565b6000600560008473ffffffffffffffffffffffffffffffffffffffff1673ffffffffffffffffffffffffffffffffffffffff16815260200190815260200160002060008373ffffffffffffffffffffffffffffffffffffffff1673ffffffffffffffffffffffffffffffffffffffff16815260200190815260200160002060009054906101000a900460ff16905092915050565b6109a4610dfd565b600073ffffffffffffffffffffffffffffffffffffffff168173ffffffffffffffffffffffffffffffffffffffff1603610a165760006040517f1e4fbdf7000000000000000000000000000000000000000000000000000000008152600401610a0d9190611cb8565b60405180910390fd5b610a1f81610e84565b50565b60007f80ac58cd000000000000000000000000000000000000000000000000000000007bffffffffffffffffffffffffffffffffffffffffffffffffffffffff1916827bffffffffffffffffffffffffffffffffffffffffffffffffffffffff19161480610aed57507f5b5e139f000000000000000000000000000000000000000000000000000000007bffffffffffffffffffffffffffffffffffffffffffffffffffffffff1916827bffffffffffffffffffffffffffffffffffffffffffffffffffffffff1916145b80610afd5750610afc82611364565b5b9050919050565b600080610b10836113ce565b9050600073ffffffffffffffffffffffffffffffffffffffff168173ffffffffffffffffffffffffffffffffffffffff1603610b8357826040517f7e273289000000000000000000000000000000000000000000000000000000008152600401610b7a9190611dce565b60405180910390fd5b80915050919050565b60006004600083815260200190815260200160002060009054906101000a900473ffffffffffffffffffffffffffffffffffffffff169050919050565b600033905090565b610bde838383600161140b565b505050565b600080610bef846113ce565b9050600073ffffffffffffffffffffffffffffffffffffffff168373ffffffffffffffffffffffffffffffffffffffff1614610c3157610c308184866115d0565b5b600073ffffffffffffffffffffffffffffffffffffffff168173ffffffffffffffffffffffffffffffffffffffff1614610cc257610c7360008560008061140b565b6001600360008373ffffffffffffffffffffffffffffffffffffffff1673ffffffffffffffffffffffffffffffffffffffff168152602001908152602001600020600082825403925050819055505b600073ffffffffffffffffffffffffffffffffffffffff168573ffffffffffffffffffffffffffffffffffffffff1614610d45576001600360008773ffffffffffffffffffffffffffffffffffffffff1673ffffffffffffffffffffffffffffffffffffffff168152602001908152602001600020600082825401925050819055505b846002600086815260200190815260200160002060006101000a81548173ffffffffffffffffffffffffffffffffffffffff021916908373ffffffffffffffffffffffffffffffffffffffff160217905550838573ffffffffffffffffffffffffffffffffffffffff168273ffffffffffffffffffffffffffffffffffffffff167fddf252ad1be2c89b69c2b068fc378daa952ba7f163c4a11628f55a4df523b3ef60405160405180910390a4809150509392505050565b610e05610bc9565b73ffffffffffffffffffffffffffffffffffffffff16610e236106bc565b73ffffffffffffffffffffffffffffffffffffffff1614610e8257610e46610bc9565b6040517f118cdaa7000000000000000000000000000000000000000000000000000000008152600401610e799190611cb8565b60405180910390fd5b565b6000600760009054906101000a900473ffffffffffffffffffffffffffffffffffffffff16905081600760006101000a81548173ffffffffffffffffffffffffffffffffffffffff021916908373ffffffffffffffffffffffffffffffffffffffff1602179055508173ffffffffffffffffffffffffffffffffffffffff168173ffffffffffffffffffffffffffffffffffffffff167f8be0079c531659141344cd1fd0a4f28419497f9722a3daafe3b4186f6b6457e060405160405180910390a35050565b600073ffffffffffffffffffffffffffffffffffffffff168273ffffffffffffffffffffffffffffffffffffffff1603610fbb57816040517f5b08ba18000000000000000000000000000000000000000000000000000000008152600401610fb29190611cb8565b60405180910390fd5b80600560008573ffffffffffffffffffffffffffffffffffffffff1673ffffffffffffffffffffffffffffffffffffffff16815260200190815260200160002060008473ffffffffffffffffffffffffffffffffffffffff1673ffffffffffffffffffffffffffffffffffffffff16815260200190815260200160002060006101000a81548160ff0219169083151502179055508173ffffffffffffffffffffffffffffffffffffffff168373ffffffffffffffffffffffffffffffffffffffff167f17307eab39ab6107e8899845ad3d59bd9653f200f220920489ca2b5937696c31836040516110ac9190611b47565b60405180910390a3505050565b60008373ffffffffffffffffffffffffffffffffffffffff163b1115611263578273ffffffffffffffffffffffffffffffffffffffff1663150b7a02868685856040518563ffffffff1660e01b815260040161111894939291906122fa565b6020604051808303816000875af192505050801561115457506040513d601f19601f82011682018060405250810190611151919061235b565b60015b6111d8573d8060008114611184576040519150601f19603f3d011682016040523d82523d6000602084013e611189565b606091505b5060008151036111d057836040517f64a0ae920000000000000000000000000000000000000000000000000000000081526004016111c79190611cb8565b60405180910390fd5b805160208201fd5b63150b7a0260e01b7bffffffffffffffffffffffffffffffffffffffffffffffffffffffff1916817bffffffffffffffffffffffffffffffffffffffffffffffffffffffff19161461126157836040517f64a0ae920000000000000000000000000000000000000000000000000000000081526004016112589190611cb8565b60405180910390fd5b505b5050505050565b606060405180602001604052806000815250905090565b606061128c82610b04565b50600061129761126a565b905060008151116112b757604051806020016040528060008152506112e2565b806112c184611694565b6040516020016112d292919061220a565b6040516020818303038152906040525b915050919050565b611304828260405180602001604052806000815250611762565b5050565b806006600084815260200190815260200160002090816113289190612534565b507ff8e1a15aba9398e019f0b49df1a4fde98ee17ae345cb5f6b5e2c27f5033e8ce7826040516113589190611dce565b60405180910390a15050565b60007f01ffc9a7000000000000000000000000000000000000000000000000000000007bffffffffffffffffffffffffffffffffffffffffffffffffffffffff1916827bffffffffffffffffffffffffffffffffffffffffffffffffffffffff1916149050919050565b60006002600083815260200190815260200160002060009054906101000a900473ffffffffffffffffffffffffffffffffffffffff169050919050565b80806114445750600073ffffffffffffffffffffffffffffffffffffffff168273ffffffffffffffffffffffffffffffffffffffff1614155b1561157857600061145484610b04565b9050600073ffffffffffffffffffffffffffffffffffffffff168373ffffffffffffffffffffffffffffffffffffffff16141580156114bf57508273ffffffffffffffffffffffffffffffffffffffff168173ffffffffffffffffffffffffffffffffffffffff1614155b80156114d257506114d08184610908565b155b1561151457826040517fa9fbf51f00000000000000000000000000000000000000000000000000000000815260040161150b9190611cb8565b60405180910390fd5b811561157657838573ffffffffffffffffffffffffffffffffffffffff168273ffffffffffffffffffffffffffffffffffffffff167f8c5be1e5ebec7d5bd14f71427d1e84f3dd0314c0f7b2291e5b200ac8c7c3b92560405160405180910390a45b505b836004600085815260200190815260200160002060006101000a81548173ffffffffffffffffffffffffffffffffffffffff021916908373ffffffffffffffffffffffffffffffffffffffff16021790555050505050565b6115db838383611786565b61168f57600073ffffffffffffffffffffffffffffffffffffffff168373ffffffffffffffffffffffffffffffffffffffff160361165057806040517f7e2732890000000000000000000000000000000000000000000000000000000081526004016116479190611dce565b60405180910390fd5b81816040517f177e802f000000000000000000000000000000000000000000000000000000008152600401611686929190612606565b60405180910390fd5b505050565b6060600060016116a384611847565b01905060008167ffffffffffffffff8111156116c2576116c1611e5f565b5b6040519080825280601f01601f1916602001820160405280156116f45781602001600182028036833780820191505090505b509050600082602083010190505b600115611757578080600190039150507f3031323334353637383961626364656600000000000000000000000000000000600a86061a8153600a858161174b5761174a61262f565b5b04945060008503611702575b819350505050919050565b61176c838361199a565b611781611777610bc9565b60008585856110b9565b505050565b60008073ffffffffffffffffffffffffffffffffffffffff168373ffffffffffffffffffffffffffffffffffffffff161415801561183e57508273ffffffffffffffffffffffffffffffffffffffff168473ffffffffffffffffffffffffffffffffffffffff1614806117ff57506117fe8484610908565b5b8061183d57508273ffffffffffffffffffffffffffffffffffffffff1661182583610b8c565b73ffffffffffffffffffffffffffffffffffffffff16145b5b90509392505050565b600080600090507a184f03e93ff9f4daa797ed6e38ed64bf6a1f01000000000000000083106118a5577a184f03e93ff9f4daa797ed6e38ed64bf6a1f010000000000000000838161189b5761189a61262f565b5b0492506040810190505b6d04ee2d6d415b85acef810000000083106118e2576d04ee2d6d415b85acef810000000083816118d8576118d761262f565b5b0492506020810190505b662386f26fc10000831061191157662386f26fc1000083816119075761190661262f565b5b0492506010810190505b6305f5e100831061193a576305f5e10083816119305761192f61262f565b5b0492506008810190505b612710831061195f5761271083816119555761195461262f565b5b0492506004810190505b6064831061198257606483816119785761197761262f565b5b0492506002810190505b600a8310611991576001810190505b80915050919050565b600073ffffffffffffffffffffffffffffffffffffffff168273ffffffffffffffffffffffffffffffffffffffff1603611a0c5760006040517f64a0ae92000000000000000000000000000000000000000000000000000000008152600401611a039190611cb8565b60405180910390fd5b6000611a1a83836000610be3565b9050600073ffffffffffffffffffffffffffffffffffffffff168173ffffffffffffffffffffffffffffffffffffffff1614611a8e5760006040517f73c6ac6e000000000000000000000000000000000000000000000000000000008152600401611a859190611cb8565b60405180910390fd5b505050565b6000604051905090565b600080fd5b600080fd5b60007fffffffff0000000000000000000000000000000000000000000000000000000082169050919050565b611adc81611aa7565b8114611ae757600080fd5b50565b600081359050611af981611ad3565b92915050565b600060208284031215611b1557611b14611a9d565b5b6000611b2384828501611aea565b91505092915050565b60008115159050919050565b611b4181611b2c565b82525050565b6000602082019050611b5c6000830184611b38565b92915050565b600081519050919050565b600082825260208201905092915050565b60005b83811015611b9c578082015181840152602081019050611b81565b60008484015250505050565b6000601f19601f8301169050919050565b6000611bc482611b62565b611bce8185611b6d565b9350611bde818560208601611b7e565b611be781611ba8565b840191505092915050565b60006020820190508181036000830152611c0c8184611bb9565b905092915050565b6000819050919050565b611c2781611c14565b8114611c3257600080fd5b50565b600081359050611c4481611c1e565b92915050565b600060208284031215611c6057611c5f611a9d565b5b6000611c6e84828501611c35565b91505092915050565b600073ffffffffffffffffffffffffffffffffffffffff82169050919050565b6000611ca282611c77565b9050919050565b611cb281611c97565b82525050565b6000602082019050611ccd6000830184611ca9565b92915050565b611cdc81611c97565b8114611ce757600080fd5b50565b600081359050611cf981611cd3565b92915050565b60008060408385031215611d1657611d15611a9d565b5b6000611d2485828601611cea565b9250506020611d3585828601611c35565b9150509250929050565b600080600060608486031215611d5857611d57611a9d565b5b6000611d6686828701611cea565b9350506020611d7786828701611cea565b9250506040611d8886828701611c35565b9150509250925092565b600060208284031215611da857611da7611a9d565b5b6000611db684828501611cea565b91505092915050565b611dc881611c14565b82525050565b6000602082019050611de36000830184611dbf565b92915050565b611df281611b2c565b8114611dfd57600080fd5b50565b600081359050611e0f81611de9565b92915050565b60008060408385031215611e2c57611e2b611a9d565b5b6000611e3a85828601611cea565b9250506020611e4b85828601611e00565b9150509250929050565b600080fd5b600080fd5b7f4e487b7100000000000000000000000000000000000000000000000000000000600052604160045260246000fd5b611e9782611ba8565b810181811067ffffffffffffffff82111715611eb657611eb5611e5f565b5b80604052505050565b6000611ec9611a93565b9050611ed58282611e8e565b919050565b600067ffffffffffffffff821115611ef557611ef4611e5f565b5b611efe82611ba8565b9050602081019050919050565b82818337600083830152505050565b6000611f2d611f2884611eda565b611ebf565b905082815260208101848484011115611f4957611f48611e5a565b5b611f54848285611f0b565b509392505050565b600082601f830112611f7157611f70611e55565b5b8135611f81848260208601611f1a565b91505092915050565b60008060008060808587031215611fa457611fa3611a9d565b5b6000611fb287828801611cea565b9450506020611fc387828801611cea565b9350506040611fd487828801611c35565b925050606085013567ffffffffffffffff811115611ff557611ff4611aa2565b5b61200187828801611f5c565b91505092959194509250565b600067ffffffffffffffff82111561202857612027611e5f565b5b61203182611ba8565b9050602081019050919050565b600061205161204c8461200d565b611ebf565b90508281526020810184848401111561206d5761206c611e5a565b5b612078848285611f0b565b509392505050565b600082601f83011261209557612094611e55565b5b81356120a584826020860161203e565b91505092915050565b6000602082840312156120c4576120c3611a9d565b5b600082013567ffffffffffffffff8111156120e2576120e1611aa2565b5b6120ee84828501612080565b91505092915050565b6000806040838503121561210e5761210d611a9d565b5b600061211c85828601611cea565b925050602061212d85828601611cea565b9150509250929050565b7f4e487b7100000000000000000000000000000000000000000000000000000000600052602260045260246000fd5b6000600282049050600182168061217e57607f821691505b60208210810361219157612190612137565b5b50919050565b60006060820190506121ac6000830186611ca9565b6121b96020830185611dbf565b6121c66040830184611ca9565b949350505050565b600081905092915050565b60006121e482611b62565b6121ee81856121ce565b93506121fe818560208601611b7e565b80840191505092915050565b600061221682856121d9565b915061222282846121d9565b91508190509392505050565b7f4e487b7100000000000000000000000000000000000000000000000000000000600052601160045260246000fd5b600061226882611c14565b91507fffffffffffffffffffffffffffffffffffffffffffffffffffffffffffffffff820361229a5761229961222e565b5b600182019050919050565b600081519050919050565b600082825260208201905092915050565b60006122cc826122a5565b6122d681856122b0565b93506122e6818560208601611b7e565b6122ef81611ba8565b840191505092915050565b600060808201905061230f6000830187611ca9565b61231c6020830186611ca9565b6123296040830185611dbf565b818103606083015261233b81846122c1565b905095945050505050565b60008151905061235581611ad3565b92915050565b60006020828403121561237157612370611a9d565b5b600061237f84828501612346565b91505092915050565b60008190508160005260206000209050919050565b60006020601f8301049050919050565b600082821b905092915050565b6000600883026123ea7fffffffffffffffffffffffffffffffffffffffffffffffffffffffffffffffff826123ad565b6123f486836123ad565b95508019841693508086168417925050509392505050565b6000819050919050565b600061243161242c61242784611c14565b61240c565b611c14565b9050919050565b6000819050919050565b61244b83612416565b61245f61245782612438565b8484546123ba565b825550505050565b600090565b612474612467565b61247f818484612442565b505050565b5b818110156124a35761249860008261246c565b600181019050612485565b5050565b601f8211156124e8576124b981612388565b6124c28461239d565b810160208510156124d1578190505b6124e56124dd8561239d565b830182612484565b50505b505050565b600082821c905092915050565b600061250b600019846008026124ed565b1980831691505092915050565b600061252483836124fa565b9150826002028217905092915050565b61253d82611b62565b67ffffffffffffffff81111561255657612555611e5f565b5b6125608254612166565b61256b8282856124a7565b600060209050601f83116001811461259e576000841561258c578287015190505b6125968582612518565b8655506125fe565b601f1984166125ac86612388565b60005b828110156125d4578489015182556001820191506020850194506020810190506125af565b868310156125f157848901516125ed601f8916826124fa565b8355505b6001600288020188555050505b505050505050565b600060408201905061261b6000830185611ca9565b6126286020830184611dbf565b9392505050565b7f4e487b7100000000000000000000000000000000000000000000000000000000600052601260045260246000fdfea2646970667358221220930e56015c24ac5378a1a1c05e05c84d6a57cd68a1cf26ee10196fa3867eb7e964736f6c634300081c0033",
  "linkReferences": {},
  "deployedLinkReferences": {}
}